:100000000C9462000C948A000C948A000C948A0070
:100010000C948A000C948A000C948A000C948A0038
:100020000C948A000C948A000C948A000C94D004DE
:100030000C948A000C948A000C948A000C948A0018
:100040000C9486040C948A000C948A000C948A0008
:100050000C948A000C948A000C948A000C948A00F8
:100060000C948A000C948A000000000024002700F1
:100070002A0000000000250028002B0000000008D6
:10008000000201000003040700000000000000005F
:1000900000000000230026002900040404040404D6
:1000A0000404020202020202030303030303010227
:1000B00004081020408001020408102001020408F6
:1000C00010207C0711241FBECFEFD8E0DEBFCDBFCC
:1000D00011E0A0E0B1E0EEEEF4E102C005900D9277
:1000E000A035B107D9F721E0A0E5B1E001C01D922C
:1000F000A03AB207E1F710E0C2E6D0E004C02197D1
:10010000FE010E946F0AC136D107C9F70E94D105CE
:100110000C94750A0C940000CF92DF92EF92FF923C
:10012000DC01A03282E0B807D4F5A53BB10514F09C
:10013000A4EBB0E04091860128E830E0241B3109AF
:1001400047FD3395220F331F220F331F6901330FF1
:10015000EE08FF084091870128E532E0241B3109B1
:1001600047FD3395220F331F220F331F032E000C40
:10017000440B550B2C193D094E095F09B7FF02C00E
:10018000B0E0A0E00E94EE0724EB30E040E050E059
:100190000E94C407C20ED31EE41EF51ED601E091D4
:1001A0008501EC3080F52091860188E890E0821B83
:1001B000910927FD9395880F991F880F991FA817FC
:1001C000B90784F02091870188E592E0821B9109AC
:1001D00027FD9395880F991F880F991FA817B907B6
:1001E0000CF4CD010297880F991F4FB7F8942E2F6A
:1001F00030E0F901EE0FFF1FE20FF31FEF59FE4F42
:10020000928381834FBFFF90EF90DF90CF9008954E
:10021000AF92BF92CF92DF92EF92FF920F931F9314
:10022000CF93DF936C017B018B01040F151FEB0152
:100230005E01AE18BF08C017D10759F06991D60109
:10024000ED91FC910190F081E02DC6010995892B7B
:1002500079F7C501DF91CF911F910F91FF90EF903A
:10026000DF90CF90BF90AF90089590E0FC01E458EC
:10027000FF4F2491FC01E255FF4F3491FC01E656FB
:10028000FF4FE491EE23C9F0222339F0233001F12E
:10029000A8F4213019F1223029F1F0E0EE0FFF1F10
:1002A000EE58FF4FA591B4918FB7F894EC9161117E
:1002B00026C030953E233C938FBF08952730A9F088
:1002C0002830C9F0243049F7809180008F7D03C029
:1002D000809180008F7780938000DFCF84B58F7707
:1002E00084BDDBCF84B58F7DFBCF8091B0008F774D
:1002F0008093B000D2CF8091B0008F7DF9CF3E2B9C
:10030000DACFCF93DF9390E0FC01E255FF4F2491C9
:1003100086569F4FFC0184918823D1F090E0880F8E
:10032000991FFC01E859FF4FA591B491FC01EE58CB
:10033000FF4FC591D49161110EC09FB7F8948C9175
:10034000E22FE0958E238C932881E223E8839FBFE0
:10035000DF91CF9108958FB7F894EC91E22BEC9355
:100360008FBFF6CF3FB7F894809157019091580115
:10037000A0915901B0915A0126B5A89B05C02F3F05
:1003800019F00196A11DB11D3FBFBA2FA92F982FBB
:100390008827BC01CD01620F711D811D911D42E0B6
:1003A000660F771F881F991F4A95D1F708958F927E
:1003B0009F92AF92BF92CF92DF92EF92FF924B014A
:1003C0005C010E94B2016B017C010E94B2016C19B8
:1003D0007D098E099F09683E734081059105A8F348
:1003E00021E0821A9108A108B10888EEC80E83E0C6
:1003F000D81EE11CF11C81149104A104B10429F759
:10040000FF90EF90DF90CF90BF90AF909F908F9034
:100410000895089590E080E00895FC010190002087
:10042000E9F73197AF01481B590BBC0188E891E00F
:100430000C9408018F929F92AF92BF920F931F93DB
:10044000CF93DF93CDB7DEB7A1970FB6F894DEBF99
:100450000FBECDBF19A2423008F44AE08E010F5DF5
:100460001F4F842E912CB12CA12CA50194010E9428
:10047000F607E62FB901CA01EA30F4F4E05DD801CD
:10048000EE938D01232B242B252B79F790E080E030
:10049000109719F0CD010E940D02A1960FB6F894A5
:1004A000DEBF0FBECDBFDF91CF911F910F91BF90E7
:1004B000AF909F908F900895E95CE1CFCF93DF9349
:1004C000EC0160E08E810E94350161E08E810E9426
:1004D000350160E08E810E9435018BE891E0019743
:1004E000F1F7DF91CF910895CF92DF92EF92FF92D3
:1004F0000F931F93CF93DF936C017C0187E0E80E8D
:10050000F11CD0E0C0E0062F10E0B8010C2E02C0B4
:10051000759567950A94E2F76170F70181917F0103
:100520000E9435012196C430D10579F7C601DF91CB
:10053000CF911F910F91FF90EF90DF90CF900C948F
:100540005E02CF92DF92EF92FF920F931F93CF93B1
:10055000DF93EC01F62E642F8C810E9435018D8192
:100560008F3F19F060E00E9435010F2D10E08F855C
:1005700084FF25C06E0187E0C80ED11CF12CE12C50
:10058000B8010E2C02C0759567950A94E2F7617068
:10059000F60181916F010E943501FFEFEF1AFF0A0A
:1005A00088E0E816F10461F7CE01DF91CF911F9149
:1005B0000F91FF90EF90DF90CF900C945E02B80106
:1005C00084E0759567958A95E1F7CE010E947402E3
:1005D0006F2DCE01DF91CF911F910F91FF90EF9082
:1005E000DF90CF900C94740240E0682F88E891E08F
:1005F0000C94A10281E00E94F4028BE39FE1019739
:10060000F1F70895CF93DF93613029F0909197012E
:1006100098609093970160939B0110929C0190E4E5
:1006200090939D0180939E01805C80939F0161E087
:1006300080918C010E94810180918D018F3F19F082
:1006400061E00E94810161E080918E010E94810140
:10065000C8E8D1E09E01285831408091970184FD7F
:100660000BC084E090E021962817390744F461E03C
:100670008E810E948101EECF88E090E0F4CF8BE381
:100680009DE00197F1F760E080918C010E943501B7
:1006900060E080918E010E94350180918D018F3F35
:1006A00019F060E00E9435018091970184FD34C00B
:1006B00063E088E891E00E947402CBE4D6E4CE01C6
:1006C0000197F1F763E088E891E00E9474022197B6
:1006D000F1F763E088E891E00E94740283E592E01C
:1006E0000197F1F762E088E891E00E94740280913E
:1006F000970180620E94F40284E0809398018CE06C
:100700000E94F4020E94FA0282E08093990186E03E
:10071000DF91CF910C94F40280620E94F4028BE48A
:1007200096E40197F1F78091970180620E94F402AC
:1007300083E592E00197F1F78091970180620E9432
:10074000F402D5CF41E00E94A10281E090E008953B
:100750004F925F926F927F928F929F92AF92BF92D1
:10076000CF92DF92EF92FF920F931F93CF936B0183
:100770007C01742EAC019B010E945E0A882399F0D3
:100780008CE091E0CF911F910F91FF90EF90DF905F
:10079000CF90BF90AF909F908F907F906F905F9021
:1007A0004F900C940D0246015701E894B7F82FEFD3
:1007B0003FEF4FE75FE7C501B4010E945E0A811178
:1007C0000DC02FEF3FEF4FE75FE7C501B4010E9477
:1007D000940818161CF480E191E0D4CF2FEF3FEF7E
:1007E0004FE75FE4C701B6010E94EC0918161CF43C
:1007F00084E191E0C7CF2FEF3FEF4FE75FECC701F8
:10080000B6010E94940887FDF3CF20E030E0A901F3
:10081000C701B6010E94940810E000E087FF0CC0F9
:1008200041E06DE288E891E00E94A102F7FAF094BD
:10083000F7F8F09401E010E0C0E060E070E080E0E4
:100840009FE37C1641F020E030E040E251E40E945A
:100850009908CF5FF6CFA70196010E9428084B01A7
:100860005C010E940B092B013C014AE00E941A0224
:10087000080F191FCC23C9F1C301B2010E943A0924
:100880009B01AC01C501B4010E9427084B015C012A
:1008900041E06EE288E891E00E94A1020F5F1F4FE5
:1008A000C15018F120E030E040E251E4C501B4014C
:1008B0000E94F1092B013C010E940B094B01B12C54
:1008C000A12C4AE0C501B4010E941A02080F191FA9
:1008D000C501B4010E943A099B01AC01C301B201F8
:1008E0000E9427084B015C01DBCFC801CF911F910B
:1008F0000F91FF90EF90DF90CF90BF90AF909F90BF
:100900008F907F906F905F904F9008951F920F92FD
:100910000FB60F9211242F933F938F939F93AF9312
:10092000BF938091530190915401A0915501B091D2
:1009300056013091520123E0230F2D3758F50196CF
:10094000A11DB11D20935201809353019093540136
:10095000A0935501B0935601809157019091580191
:10096000A0915901B0915A010196A11DB11D80932A
:10097000570190935801A0935901B0935A01BF9128
:10098000AF919F918F913F912F910F900FBE0F903C
:100990001F90189526E8230F0296A11DB11DD2CFF6
:1009A0001F920F920FB60F9211242F933F934F93E4
:1009B0005F936F937F938F939F93AF93BF93CF93E7
:1009C000DF93EF93FF9380915101C0915001D0E0EC
:1009D00087FF24C0109285001092840080915101FD
:1009E0008F5F8093510180915101082E000C990B6B
:1009F0008C179D0724F4809151018C30C4F18091B3
:100A0000840090918500049680349C4908F47AC053
:100A10008091840090918500049676C08091510168
:100A2000082E000C990B8C179D07C4F6E09151011C
:100A30008E2FEE0F990BFC01EE0FFF1FE80FF91F31
:100A4000EF59FE4F808186FFC9CFE09151018E2F73
:100A5000EE0F990BFC01EE0FFF1FE80FF91FEF5986
:100A6000FE4F808160E08F730E943501B7CF2091E7
:100A7000840030918500E09151018E2FEE0F990B8B
:100A8000FC01EE0FFF1FE80FF91FEF59FE4F8181A8
:100A90009281820F931F9093890080938800E09148
:100AA00051018E2FEE0F990BFC01EE0FFF1FE80F87
:100AB000F91FEF59FE4F808186FF11C0E09151016F
:100AC0008E2FEE0F990BFC01EE0FFF1FE80FF91FA1
:100AD000EF59FE4F808161E08F730E943501FF91D5
:100AE000EF91DF91CF91BF91AF919F918F917F91C6
:100AF0006F915F914F913F912F910F900FBE0F908B
:100B00001F90189580E49CE9909389008093880059
:100B10008FEF80935101E3CFCF92DF92EF92FF925C
:100B20000F931F93E82FF92F05C0015011092109D8
:100B3000310961F1908196239417B9F305C00150F2
:100B400011092109310911F1908196239413F7CFEE
:100B5000C12CD12CE12CF12C0AC08FEFC81AD80A75
:100B6000E80AF80A0C151D052E053F0579F080816D
:100B70008623841791F36C2D7D2D8E2D9F2D1F9133
:100B80000F91FF90EF90DF90CF90089560E070E0BC
:100B900080E090E01F910F91FF90EF90DF90CF9059
:100BA0000895789484B5826084BD84B5816084BDE5
:100BB00085B5826085BD85B5816085BD80916E00FB
:100BC000816080936E00109281008091810082602C
:100BD0008093810080918100816080938100809169
:100BE00080008160809380008091B1008460809358
:100BF000B1008091B00081608093B00080917A0054
:100C0000846080937A0080917A00826080937A0079
:100C100080917A00816080937A0080917A00806868
:100C200080937A001092C10064E084E10E94020384
:100C300088E191E00E940D0261E089E00E9481015B
:100C400060E08AE00E948101809185018C3008F08B
:100C500051C061E082E00E94810180918501282FCE
:100C600030E0F901EE0FFF1FE20FF31FEF59FE4FC7
:100C70009081907C926090831092860110928701FF
:100C80002CE0622F0E94630A829FB001112430E0A1
:100C900020E0AB01420F531FFA01EE0FFF1FE40FDC
:100CA000F51FEF59FE4F908196FD16C02F5F3F4F05
:100CB0002C30310571F781110FC01092800082E055
:100CC000809381001092850010928400B19A8091E7
:100CD0006F00826080936F00E09185018E2F90E01D
:100CE000FC01EE0FFF1FE80FF91FEF59FE4F808147
:100CF00080648083E0919B01E23008F0D8C0E1502D
:100D0000F0E0E857FE4F848980680E94F40284E294
:100D100091E00E940D0260ED77E080E090E00E949B
:100D2000D7010E94FA0283E391E00E940D0260ED78
:100D300077E080E090E00E94D701C3E0D0E093E24A
:100D4000E92EF12C28EB622E20E0722E34EAC32E1D
:100D500030E0D32E44EBA42EB12C50E0852E50E091
:100D6000952E0E94FA0260E089E00E943501CE01D2
:100D70000197F1F761E089E00E943501C701019711
:100D8000F1F760E089E00E943501CE010197F1F7AB
:100D9000F3016491F6018491E82FF0E0EE0FFF1F5C
:100DA000E057FF4F8591949100E412E42FE030E08A
:100DB000462F0E948C05611571058105910529F06A
:100DC0006F5F7F4F8F4F9F4F9F700E943A0920E0C7
:100DD00030E04AEA53E40E94F10920E030E44CE9B3
:100DE00056E40E94990860935D0170935E018093C0
:100DF0005F01909360010E94FA0283E491E00E94F7
:100E00000D0260915D0170915E0180915F01909192
:100E1000600142E00E94A8038DE491E00E940D026F
:100E2000E0919B01E23008F044C0E150F0E0E85767
:100E3000FE4F848980680E94F40283E491E00E945E
:100E40000D0220E030E048EC52E460915D017091C9
:100E50005E0180915F01909160010E94990842E0DB
:100E60000E94A8038EE491E00E940D0268EE73E0F8
:100E700080E090E00E94D70110925C0110925B012B
:100E800000915B0110915C01053B1105A4F4C801C0
:100E90000E948C006FE070E080E090E00E94D7013B
:100EA0000F5F1F4F10935C0100935B01E9CFE1E0FE
:100EB00027CFE1E0BBCFB0925C01A0925B01009133
:100EC0005B0110915C0117FD10C0C8010E948C00ED
:100ED0006FE070E080E090E00E94D70101501109BE
:100EE00010935C0100935B01EACF8114910409F433
:100EF00038CF0E94000035CF809150018C3008F02F
:100F00003FC091E0980F909350018093850190E04D
:100F1000FC01EE0FFF1FE80FF91FEF59FE4F88EBA2
:100F20009BE09283818310928B0110928A0184E06E
:100F300091E090938901809388018CE080938C01EB
:100F40008FEF80938D018BE080938E0185E08093FD
:100F50008F0184E08093900183E08093910182E08F
:100F60008093920110929301109294011092950136
:100F7000109296011092970161E080E10C940203B7
:100F80008FEF80938501CFCF052E97FB1EF4009441
:100F90000E94DB0757FD07D00E94F60707FC03D02D
:100FA0004EF40C94DB0750954095309521953F4FBA
:100FB0004F4F5F4F089590958095709561957F4F45
:100FC0008F4F9F4F08950E941808A59F900DB49FC2
:100FD000900DA49F800D911D11240895B7FF0C94CE
:100FE000E3070E94E307821B930B0895A1E21A2EE8
:100FF000AA1BBB1BFD010DC0AA1FBB1FEE1FFF1FBD
:10100000A217B307E407F50720F0A21BB30BE40B0C
:10101000F50B661F771F881F991F1A9469F7609553
:101020007095809590959B01AC01BD01CF0108950D
:10103000A29FB001B39FC001A39F700D811D112419
:10104000911DB29F700D811D1124911D089550585E
:10105000BB27AA270E943F080C94B2090E94A4094A
:1010600038F00E94AB0920F039F49F3F19F426F4C0
:101070000C94A1090EF4E095E7FB0C949B09E92F71
:101080000E94C30958F3BA176207730784079507CC
:1010900020F079F4A6F50C94E5090EF4E0950B2EFA
:1010A000BA2FA02D0B01B90190010C01CA01A001BA
:1010B0001124FF27591B99F0593F50F4503E68F115
:1010C0001A16F040A22F232F342F4427585FF3CF56
:1010D000469537952795A795F0405395C9F77EF427
:1010E0001F16BA0B620B730B840BBAF09150A1F070
:1010F000FF0FBB1F661F771F881FC2F70EC0BA0FF6
:10110000621F731F841F48F4879577956795B7957D
:10111000F7959E3F08F0B0CF9395880F08F0992778
:10112000EE0F9795879508950E94770908F481E05E
:1011300008950E94AD080C94B2090E94AB0958F0C2
:101140000E94A40940F029F45F3F29F00C949B0908
:1011500051110C94E6090C94A1090E94C30968F38B
:101160009923B1F3552391F3951B550BBB27AA2760
:1011700062177307840738F09F5F5F4F220F331F9A
:10118000441FAA1FA9F335D00E2E3AF0E0E832D062
:1011900091505040E695001CCAF72BD0FE2F29D065
:1011A000660F771F881FBB1F261737074807AB0737
:1011B000B0E809F0BB0B802DBF01FF2793585F4FAC
:1011C0003AF09E3F510578F00C949B090C94E60987
:1011D0005F3FE4F3983ED4F3869577956795B7958E
:1011E000F7959F5FC9F7880F911D9695879597F999
:1011F0000895E1E0660F771F881FBB1F6217730712
:101200008407BA0720F0621B730B840BBA0BEE1F26
:1012100088F7E09508950E94CB0988F09F5798F0D1
:10122000B92F9927B751B0F0E1F0660F771F881FEB
:10123000991F1AF0BA95C9F714C0B13091F00E9405
:10124000E509B1E008950C94E509672F782F882708
:10125000B85F39F0B93FCCF3869577956795B3952C
:10126000D9F73EF490958095709561957F4F8F4F9B
:101270009F4F0895E89409C097FB3EF490958095A0
:10128000709561957F4F8F4F9F4F9923A9F0F92F4C
:1012900096E9BB279395F695879577956795B795CA
:1012A000F111F8CFFAF4BB0F11F460FF1BC06F5FB0
:1012B0007F4F8F4F9F4F16C0882311F096E911C0C2
:1012C000772321F09EE8872F762F05C0662371F0E3
:1012D00096E8862F70E060E02AF09A95660F771FF7
:1012E000881FDAF7880F9695879597F90895990FD3
:1012F0000008550FAA0BE0E8FEEF16161706E807E0
:10130000F907C0F012161306E407F50798F0621B00
:10131000730B840B950B39F40A2661F0232B242BD5
:10132000252B21F408950A2609F4A140A6958FEFF4
:10133000811D811D089597F99F6780E870E060E046
:1013400008959FEF80EC089500240A94161617065E
:1013500018060906089500240A94121613061406A6
:1013600005060895092E0394000C11F4882352F009
:10137000BB0F40F4BF2B11F460FF04C06F5F7F4FC1
:101380008F4F9F4F089557FD9058440F551F59F0A8
:101390005F3F71F04795880F97FB991F61F09F3F62
:1013A00079F087950895121613061406551FF2CF8B
:1013B0004695F1DF08C0161617061806991FF1CFDB
:1013C00086957105610508940895E894BB27662702
:1013D0007727CB0197F908950E94770908F48FEFDA
:1013E00008950E94040A0C94B2090E94A40938F0DE
:1013F0000E94AB0920F0952311F00C949B090C94EA
:10140000A10911240C94E6090E94C30970F3959F69
:10141000C1F3950F50E0551F629FF001729FBB27EB
:10142000F00DB11D639FAA27F00DB11DAA1F649F87
:101430006627B00DA11D661F829F2227B00DA11D3A
:10144000621F739FB00DA11D621F839FA00D611DC0
:10145000221F749F3327A00D611D231F849F600DE1
:10146000211D822F762F6A2F11249F5750409AF00A
:10147000F1F088234AF0EE0FFF1FBB1F661F771F96
:10148000881F91505040A9F79E3F510580F00C9461
:101490009B090C94E6095F3FE4F3983ED4F38695EC
:1014A00077956795B795F795E7959F5FC1F7FE2B01
:1014B000880F911D9695879597F908950E94770951
:1014C000880B990B0895991B79E004C0991F961712
:1014D00008F0961B881F7A95C9F780950895EE0F3E
:0E14E000FF1F0590F491E02D0994F894FFCFC2
:1014EE0000000000A20308010A0209026E616E00EC
:1014FE00696E66006F76660048656C6C6F20746866
:10150E006572650044697374616E6365204D657420
:10151E00657200204369726375697420446967655A
:10152E0073740044697374616E63653A00636D0091
:00000001FF
