:100000000C9462000C948A000C948A000C948A0070
:100010000C948A000C948A000C948A000C948A0038
:100020000C948A000C948A000C948A000C948A0028
:100030000C948A000C948A000C948A000C948A0018
:100040000C940A040C948A000C948A000C948A0084
:100050000C948A000C948A000C948A000C948A00F8
:100060000C948A000C948A000000000024002700F1
:100070002A0000000000250028002B0000000008D6
:10008000000201000003040700000000000000005F
:1000900000000000230026002900040404040404D6
:1000A0000404020202020202030303030303010227
:1000B00004081020408001020408102001020408F6
:1000C0001020B50511241FBECFEFD8E0DEBFCDBF95
:1000D00011E0A0E0B1E0E4E7F0E102C005900D928C
:1000E000A035B107D9F721E0A0E5B1E001C01D922C
:1000F000A537B207E1F710E0C2E6D0E004C02197CF
:10010000FE010E943208C136D107C9F70E94990446
:100110000C9438080C940000AF92BF92CF92DF92FB
:10012000EF92FF920F931F93CF93DF936C017B01AC
:100130008B01040F151FEB015E01AE18BF08C0173D
:10014000D10759F06991D601ED91FC910190F081B0
:10015000E02DC6010995892B79F7C501DF91CF9173
:100160001F910F91FF90EF90DF90CF90BF90AF90D5
:10017000089590E0FC01E458FF4F2491FC01E25502
:10018000FF4F3491FC01E656FF4FE491EE23C9F096
:10019000222339F0233001F1A8F4213019F1223063
:1001A00029F1F0E0EE0FFF1FEE58FF4FA591B4913B
:1001B0008FB7F894EC91611126C030953E233C93A3
:1001C0008FBF08952730A9F02830C9F0243049F7AF
:1001D000809180008F7D03C0809180008F77809315
:1001E0008000DFCF84B58F7784BDDBCF84B58F7D72
:1001F000FBCF8091B0008F778093B000D2CF8091F9
:10020000B0008F7DF9CF3E2BDACFCF93DF9390E014
:10021000FC01E255FF4F249186569F4FFC018491CB
:100220008823D1F090E0880F991FFC01E859FF4F17
:10023000A591B491FC01EE58FF4FC591D491611185
:100240000EC09FB7F8948C91E22FE0958E238C938B
:100250002881E223E8839FBFDF91CF9108958FB774
:10026000F894EC91E22BEC938FBFF6CF3FB7F89464
:100270008091550190915601A0915701B09158017C
:1002800026B5A89B05C02F3F19F00196A11DB11DF1
:100290003FBFBA2FA92F982F8827BC01CD01620F2D
:1002A000711D811D911D42E0660F771F881F991FE8
:1002B0004A95D1F708958F929F92AF92BF92CF92B5
:1002C000DF92EF92FF924B015C010E9436016B01BD
:1002D0007C010E9436016C197D098E099F09683ED8
:1002E000734081059105A8F321E0821A9108A108C5
:1002F000B10888EEC80E83E0D81EE11CF11C811401
:100300009104A104B10429F7FF90EF90DF90CF9002
:10031000BF90AF909F908F900895089590E080E0F7
:100320000895FC0101900020E9F73197AF01481BC7
:10033000590BBC018DE591E00C948C008F929F923B
:10034000AF92BF920F931F93CF93DF93CDB7DEB7DA
:10035000A1970FB6F894DEBF0FBECDBF19A24230F1
:1003600008F44AE08E010F5D1F4F842E912CB12CB2
:10037000A12CA50194010E941008E62FB901CA0121
:10038000EA30F4F4E05DD801EE938D01232B242BA9
:10039000252B79F790E080E0109719F0CD010E94AD
:1003A0009101A1960FB6F894DEBF0FBECDBFDF91CD
:1003B000CF911F910F91BF90AF909F908F90089514
:1003C000E95CE1CFCF93DF93EC0160E08E810E9486
:1003D000B90061E08E810E94B90060E08E810E94C8
:1003E000B9008BE891E00197F1F7DF91CF91089583
:1003F000CF92DF92EF92FF920F931F93CF93DF93F1
:100400006C017C0187E0E80EF11CD0E0C0E0062F13
:1004100010E0B8010C2E02C0759567950A94E2F7BA
:100420006170F70181917F010E94B9002196C4306B
:10043000D10579F7C601DF91CF911F910F91FF9000
:10044000EF90DF90CF900C94E201CF92DF92EF9289
:10045000FF920F931F93CF93DF93EC01F62E642F3F
:100460008C810E94B9008D818F3F19F060E00E945D
:10047000B9000F2D10E08F8584FF25C06E0187E045
:10048000C80ED11CF12CE12CB8010E2C02C07595C0
:1004900067950A94E2F76170F60181916F010E94FD
:1004A000B900FFEFEF1AFF0A88E0E816F10461F7E0
:1004B000CE01DF91CF911F910F91FF90EF90DF90D0
:1004C000CF900C94E201B80184E0759567958A9508
:1004D000E1F7CE010E94F8016F2DCE01DF91CF919F
:1004E0001F910F91FF90EF90DF90CF900C94F80147
:1004F00040E0682F8DE591E00C94250281E00E9498
:1005000078028BE39FE10197F1F70895CF93DF9392
:10051000613029F090916C01986090936C01609328
:1005200070011092710190E49093720180937301B5
:10053000805C8093740161E0809161010E940501FB
:10054000809162018F3F19F061E00E94050161E036
:10055000809163010E940501CDE5D1E09E012D55FA
:10056000314080916C0184FD0BC084E090E02196C5
:100570002817390744F461E08E810E940501EECF0F
:1005800088E090E0F4CF8BE39DE00197F1F760E025
:10059000809161010E94B90060E0809163010E9436
:1005A000B900809162018F3F19F060E00E94B900AC
:1005B00080916C0184FD34C063E08DE591E00E9480
:1005C000F801CBE4D6E4CE010197F1F763E08DE5C5
:1005D00091E00E94F8012197F1F763E08DE591E049
:1005E0000E94F80183E592E00197F1F762E08DE562
:1005F00091E00E94F80180916C0180620E94780273
:1006000084E080936D018CE00E9478020E947E025B
:1006100082E080936E0186E0DF91CF910C947802A6
:1006200080620E9478028BE496E40197F1F7809152
:100630006C0180620E94780283E592E00197F1F7F5
:1006400080916C0180620E947802D5CF41E00E94C7
:10065000250281E090E008954F925F926F927F9221
:100660008F929F92AF92BF92CF92DF92EF92FF92C2
:100670000F931F93CF936B017C01742EAC019B01F0
:100680000E940B08882399F08CE091E0CF911F9194
:100690000F91FF90EF90DF90CF90BF90AF909F9021
:1006A0008F907F906F905F904F900C9491014601D6
:1006B0005701E894B7F82FEF3FEF4FE75FE7C50129
:1006C000B4010E940B0881110DC02FEF3FEF4FE7DF
:1006D0005FE7C501B4010E94410618161CF480E1D1
:1006E00091E0D4CF2FEF3FEF4FE75FE4C701B601B2
:1006F0000E94990718161CF484E191E0C7CF2FEFF0
:100700003FEF4FE75FECC701B6010E94410687FD4E
:10071000F3CF20E030E0A901C701B6010E944106F5
:1007200010E000E087FF0CC041E06DE28DE591E054
:100730000E942502F7FAF094F7F8F09401E010E037
:10074000C0E060E070E080E09FE37C1641F020E0D4
:1007500030E040E251E40E944606CF5FF6CFA701A9
:1007600096010E94D5054B015C010E94B8062B0141
:100770003C014AE00E949E01080F191FCC23C9F1D9
:10078000C301B2010E94E7069B01AC01C501B4019F
:100790000E94D4054B015C0141E06EE28DE591E0E1
:1007A0000E9425020F5F1F4FC15018F120E030E07A
:1007B00040E251E4C501B4010E949E072B013C01B7
:1007C0000E94B8064B01B12CA12C4AE0C501B4012E
:1007D0000E949E01080F191FC501B4010E94E7067F
:1007E0009B01AC01C301B2010E94D4054B015C0125
:1007F000DBCFC801CF911F910F91FF90EF90DF9059
:10080000CF90BF90AF909F908F907F906F905F90B0
:100810004F9008951F920F920FB60F9211242F93AD
:100820003F938F939F93AF93BF938091510190918A
:100830005201A0915301B09154013091500123E035
:10084000230F2D3758F50196A11DB11D209350019E
:100850008093510190935201A0935301B09354019E
:100860008091550190915601A0915701B091580186
:100870000196A11DB11D8093550190935601A0933F
:100880005701B0935801BF91AF919F918F913F91C4
:100890002F910F900FBE0F901F90189526E8230FF1
:1008A0000296A11DB11DD2CFCF92DF92EF92FF929F
:1008B0000F931F93E82FF92F05C00150110921094B
:1008C000310961F1908196239417B9F305C0015065
:1008D00011092109310911F1908196239413F7CF61
:1008E000C12CD12CE12CF12C0AC08FEFC81AD80AE8
:1008F000E80AF80A0C151D052E053F0579F08081E0
:100900008623841791F36C2D7D2D8E2D9F2D1F91A5
:100910000F91FF90EF90DF90CF90089560E070E02E
:1009200080E090E01F910F91FF90EF90DF90CF90CB
:100930000895789484B5826084BD84B5816084BD57
:1009400085B5826085BD85B5816085BD80916E006D
:10095000816080936E00109281008091810082609E
:1009600080938100809181008160809381008091DB
:1009700080008160809380008091B10084608093CA
:10098000B1008091B00081608093B00080917A00C6
:10099000846080937A0080917A00826080937A00EC
:1009A00080917A00816080937A0080917A008068DB
:1009B00080937A001092C10064E084E10E94860274
:1009C00088E191E00E94910161E089E00E940501C7
:1009D00060E08AE00E940501E0917001E23008F0D9
:1009E000C0C0E150F0E0E35AFE4F848980680E9465
:1009F000780284E291E00E94910160ED77E080E06E
:100A000090E00E945B010E947E0283E391E00E94DD
:100A1000910160ED77E080E090E00E945B01C3E02F
:100A2000D0E093E2E92EF12C28EBC22E20E0D22E6A
:100A300034EAA32E30E0B32E40E0842E40E0942E22
:100A40000E947E0260E089E00E94B900CE01019719
:100A5000F1F761E089E00E94B900C7010197F1F761
:100A600060E089E00E94B900CE010197F1F7F6013C
:100A70006491F5018491E82FF0E0EE0FFF1FE0573D
:100A8000FF4F8591949100E412E42FE030E0462F6F
:100A90000E945404611571058105910529F06F5F6D
:100AA0007F4F8F4F9F4F9F700E94E70620E030E0FE
:100AB0004AEA53E40E949E0720E030E44CE956E401
:100AC0000E9446066093590170935A0180935B011E
:100AD00090935C010E947E0283E491E00E94910168
:100AE0006091590170915A0180915B0190915C0174
:100AF00042E00E942C038DE491E00E949101E0917C
:100B00007001E23080F5E150F0E0E35AFE4F848955
:100B100080680E94780283E491E00E94910120E0C5
:100B200030E048EC52E46091590170915A01809193
:100B30005B0190915C010E94460642E00E942C03FA
:100B40008EE491E00E94910168EE73E080E090E015
:100B50000E945B018114910409F472CF0E9400008D
:100B60006FCFE1E03FCFE1E0CFCFEDE5F1E01382E1
:100B7000128284E091E0918380838CE084838FEF04
:100B800085838BE0868385E0878384E0808783E0AC
:100B9000818782E0828713861486158616861786DB
:100BA00061E080E10C9486025058BB27AA270E947E
:100BB000EC050C945F070E94510738F00E9458071B
:100BC00020F039F49F3F19F426F40C944E070EF4EC
:100BD000E095E7FB0C944807E92F0E94700758F353
:100BE000BA17620773078407950720F079F4A6F512
:100BF0000C9492070EF4E0950B2EBA2FA02D0B014A
:100C0000B90190010C01CA01A0011124FF27591B51
:100C100099F0593F50F4503E68F11A16F040A22F57
:100C2000232F342F4427585FF3CF469537952795C8
:100C3000A795F0405395C9F77EF41F16BA0B620BC7
:100C4000730B840BBAF09150A1F0FF0FBB1F661F0E
:100C5000771F881FC2F70EC0BA0F621F731F841F51
:100C600048F4879577956795B795F7959E3F08F077
:100C7000B0CF9395880F08F09927EE0F9795879539
:100C800008950E94240708F481E008950E945A06FE
:100C90000C945F070E94580758F00E94510740F0DB
:100CA00029F45F3F29F00C94480751110C949307E5
:100CB0000C944E070E94700768F39923B1F35523F3
:100CC00091F3951B550BBB27AA276217730784075F
:100CD00038F09F5F5F4F220F331F441FAA1FA9F3F5
:100CE00035D00E2E3AF0E0E832D091505040E695E3
:100CF000001CCAF72BD0FE2F29D0660F771F881F44
:100D0000BB1F261737074807AB07B0E809F0BB0B36
:100D1000802DBF01FF2793585F4F3AF09E3F51054A
:100D200078F00C9448070C9493075F3FE4F3983EE7
:100D3000D4F3869577956795B795F7959F5FC9F733
:100D4000880F911D9695879597F90895E1E0660FB4
:100D5000771F881FBB1F621773078407BA0720F02D
:100D6000621B730B840BBA0BEE1F88F7E095089596
:100D70000E94780788F09F5798F0B92F9927B751AC
:100D8000B0F0E1F0660F771F881F991F1AF0BA952F
:100D9000C9F714C0B13091F00E949207B1E00895F4
:100DA0000C949207672F782F8827B85F39F0B93FE6
:100DB000CCF3869577956795B395D9F73EF49095E2
:100DC0008095709561957F4F8F4F9F4F0895E89460
:100DD00009C097FB3EF490958095709561957F4F83
:100DE0008F4F9F4F9923A9F0F92F96E9BB27939531
:100DF000F695879577956795B795F111F8CFFAF441
:100E0000BB0F11F460FF1BC06F5F7F4F8F4F9F4F71
:100E100016C0882311F096E911C0772321F09EE8CF
:100E2000872F762F05C0662371F096E8862F70E035
:100E300060E02AF09A95660F771F881FDAF7880F0F
:100E40009695879597F90895990F0008550FAA0B65
:100E5000E0E8FEEF16161706E807F907C0F01216CD
:100E60001306E407F50798F0621B730B840B950BD0
:100E700039F40A2661F0232B242B252B21F4089525
:100E80000A2609F4A140A6958FEF811D811D0895C2
:100E900097F99F6780E870E060E008959FEF80EC2D
:100EA000089500240A9416161706180609060895D0
:100EB00000240A9412161306140605060895092E36
:100EC0000394000C11F4882352F0BB0F40F4BF2BA5
:100ED00011F460FF04C06F5F7F4F8F4F9F4F0895E5
:100EE00057FD9058440F551F59F05F3F71F04795DB
:100EF000880F97FB991F61F09F3F79F087950895C0
:100F0000121613061406551FF2CF4695F1DF08C0DE
:100F1000161617061806991FF1CF869571056105FB
:100F200008940895E894BB2766277727CB0197F9A3
:100F300008950E94240708F48FEF08950E94B107D6
:100F40000C945F070E94510738F00E94580720F068
:100F5000952311F00C9448070C944E0711240C941F
:100F600093070E94700770F3959FC1F3950F50E0AF
:100F7000551F629FF001729FBB27F00DB11D639F4B
:100F8000AA27F00DB11DAA1F649F6627B00DA11DF1
:100F9000661F829F2227B00DA11D621F739FB00D97
:100FA000A11D621F839FA00D611D221F749F332707
:100FB000A00D611D231F849F600D211D822F762FA0
:100FC0006A2F11249F5750409AF0F1F088234AF07D
:100FD000EE0FFF1FBB1F661F771F881F91505040E9
:100FE000A9F79E3F510580F00C9448070C94930795
:100FF0005F3FE4F3983ED4F3869577956795B79570
:10100000F795E7959F5FC1F7FE2B880F911D969589
:10101000879597F908950E942407880B990B0895E6
:10102000A1E21A2EAA1BBB1BFD010DC0AA1FBB1FEC
:10103000EE1FFF1FA217B307E407F50720F0A21B5E
:10104000B30BE40BF50B661F771F881F991F1A94CB
:1010500069F760957095809590959B01AC01BD01F5
:10106000CF010895EE0FFF1F0590F491E02D099434
:04107000F894FFCF22
:101074000000000026038C008E018D016E616E005D
:10108400696E66006F76660048656C6C6F207468E4
:101094006572650044697374616E6365204D65749F
:1010A40065720020436972637569742044696765D9
:1010B40073740044697374616E63653A00636D0010
:00000001FF
