:100000000C945D000C9485000C9485000C94850084
:100010000C9485000C9485000C9485000C9485004C
:100020000C9485000C9485000C9485000C9485003C
:100030000C9485000C9485000C9485000C9485002C
:100040000C9498020C9485000C9485000C94850007
:100050000C9485000C9485000C9485000C9485000C
:100060000C9485000C94850000000008000201003B
:100070000003040700000000000000000000000072
:10008000250028002B0000000000240027002A0083
:10009000040404040404040402020202020203032E
:1000A0000303030301020408102040800102040836
:1000B0001020010204081020A80311241FBECFEF56
:1000C000D8E0DEBFCDBF11E0A0E0B1E0E2EEF7E0A6
:1000D00002C005900D92A833B107D9F721E0A8E33B
:1000E000B1E001C01D92A935B207E1F710E0CDE5FE
:1000F000D0E004C02197FE010E94E903CC35D1076E
:10010000C9F70E94E2020C94EF030C94000090E007
:10011000FC01EC55FF4F249180579F4FFC018491C7
:10012000882399F090E0880F991FFC01EA57FF4F50
:10013000A591B491FC01E458FF4F859194918FB73C
:10014000F894EC91E22BEC938FBF0895AF92BF929D
:10015000CF92DF92EF92FF920F931F93CF93DF9393
:100160006C017B018B01040F151FEB015E01AE18C2
:10017000BF08C017D10759F06991D601ED91FC91E4
:100180000190F081E02DC6010995892B79F7C50111
:10019000DF91CF911F910F91FF90EF90DF90CF9063
:1001A000BF90AF90089590E0FC01E859FF4F249173
:1001B000FC01EC55FF4F3491FC01E057FF4FE491F7
:1001C000EE23C9F0222339F0233001F1A8F42130C5
:1001D00019F1223029F1F0E0EE0FFF1FE458FF4F34
:1001E000A591B4918FB7F894EC91611126C0309528
:1001F0003E233C938FBF08952730A9F02830C9F0E3
:10020000243049F7809180008F7D03C08091800069
:100210008F7780938000DFCF84B58F7784BDDBCF6D
:1002200084B58F7DFBCF8091B0008F778093B00035
:10023000D2CF8091B0008F7DF9CF3E2BDACF3FB780
:10024000F8948091390190913A01A0913B01B091CD
:100250003C0126B5A89B05C02F3F19F00196A11DB2
:10026000B11D3FBFBA2FA92F982F8827BC01CD0100
:10027000620F711D811D911D42E0660F771F881F5F
:10028000991F4A95D1F70895089590E080E0089568
:10029000FC0101900020E9F73197AF01481B590B91
:1002A000BC0181E491E00C94A600CF93DF93EC01B4
:1002B00060E08E810E94D30061E08E810E94D300B5
:1002C00060E08E810E94D3008BE891E00197F1F706
:1002D000DF91CF910895CF92DF92EF92FF920F932B
:1002E0001F93CF93DF936C017C0187E0E80EF11C34
:1002F000D0E0C0E0062F10E0B8010C2E02C07595CA
:1003000067950A94E2F76170F70181917F010E947D
:10031000D3002196C430D10579F7C601DF91CF9182
:100320001F910F91FF90EF90DF90CF900C945501AB
:10033000CF92DF92EF92FF920F931F93CF93DF93B1
:10034000EC01F62E642F8C810E94D3008D818F3FAB
:1003500019F060E00E94D3000F2D10E08F8584FF1C
:1003600025C06E0187E0C80ED11CF12CE12CB8012C
:100370000E2C02C0759567950A94E2F76170F6013C
:1003800081916F010E94D300FFEFEF1AFF0A88E00E
:10039000E816F10461F7CE01DF91CF911F910F9123
:1003A000FF90EF90DF90CF900C945501B80184E05E
:1003B000759567958A95E1F7CE010E946B016F2DC7
:1003C000CE01DF91CF911F910F91FF90EF90DF90C1
:1003D000CF900C946B0140E0682F81E491E00C9485
:1003E0009801CF93DF93613029F09091500198608C
:1003F00090935001609354011092550190E49093B2
:10040000560180935701805C80935801809145018B
:100410000E948700809146018F3F11F00E94870063
:10042000809147010E948700C1E4D1E09E012154E0
:1004300031408091500184FD0AC084E090E0219613
:10044000281739073CF48E810E948700EFCF88E09F
:1004500090E0F5CF8BE39DE00197F1F760E08091AC
:1004600045010E94D30060E0809147010E94D300C3
:10047000809146018F3F19F060E00E94D300809187
:10048000500184FD39C063E081E491E00E946B017A
:10049000CBE4D6E4CE010197F1F763E081E491E08B
:1004A0000E946B012197F1F763E081E491E00E94E3
:1004B0006B0183E592E00197F1F762E081E491E05E
:1004C0000E946B018091500180620E94EB0184E0E8
:1004D000809351018CE00E94EB0181E00E94EB01CE
:1004E0008BE39FE10197F1F782E08093520186E070
:1004F000DF91CF910C94EB0180620E94EB018BE4C1
:1005000096E40197F1F78091500180620E94EB011F
:1005100083E592E00197F1F78091500180620E949B
:10052000EB01D0CF41E00E94980181E090E0089576
:100530001F920F920FB60F9211242F933F938F9318
:100540009F93AF93BF9380913D0190913E01A09105
:100550003F01B09140013091380123E0230F2D3746
:1005600058F50196A11DB11D2093380180933D01DE
:1005700090933E01A0933F01B093400180913901D7
:1005800090913A01A0913B01B0913C010196A11DCF
:10059000B11D8093390190933A01A0933B01B09330
:1005A0003C01BF91AF919F918F913F912F910F90FF
:1005B0000FBE0F901F90189526E8230F0296A11DDD
:1005C000B11DD2CFCF93DF93CDB7DEB7A1970FB6D2
:1005D000F894DEBF0FBECDBF789484B5826084BD31
:1005E00084B5816084BD85B5826085BD85B5816037
:1005F00085BD80916E00816080936E0010928100B5
:10060000809181008260809381008091810081606F
:100610008093810080918000816080938000809130
:10062000B10084608093B1008091B00081608093BC
:10063000B00080917A00846080937A0080917A0083
:10064000826080937A0080917A00816080937A0042
:1006500080917A00806880937A001092C10064E0F3
:1006600084E10E94F1018CE091E00E9448019AE04F
:10067000492E512C612C712C20E0222E20E0322EAC
:10068000E0915401E23008F061C0E150F0E0EF5B2E
:10069000FE4F848980680E94EB010E941F014B017C
:1006A0005C0188EEC82E83E0D82EE12CF12C0E944C
:1006B0001F01681979098A099B09683E7340810501
:1006C0009105A8F321E0C21AD108E108F10888EEEB
:1006D000880E83E0981EA11CB11CC114D104E10452
:1006E000F10429F72FB7F89460913D0170913E0114
:1006F00080913F01909140012FBF28EE33E040E010
:1007000050E00E94C70319A28E010F5D1F4FCA015E
:10071000B901A30192010E94C703605DF8016293D1
:100720008F01211531054105510589F7309719F0E1
:10073000CF010E94480187E291E00E944801211404
:10074000310409F49DCF0E9400009ACFE1E09ECFD2
:10075000E1E4F1E01382128284E091E091838083EE
:100760008CE084838FEF85838BE0868385E08783AD
:1007700084E0808783E0818782E082871386148605
:1007800015861686178661E080E10C94F101A1E2DE
:100790001A2EAA1BBB1BFD010DC0AA1FBB1FEE1FFB
:1007A000FF1FA217B307E407F50720F0A21BB30B46
:1007B000E40BF50B661F771F881F991F1A9469F7C2
:1007C00060957095809590959B01AC01BD01CF011E
:1007D0000895EE0FFF1F0590F491E02D0994F89411
:0207E000FFCF49
:1007E200000000009202A6004501440144697374AE
:1007F200616E6365206D6561737572656D656E749A
:10080200206D6574657200207365636F6E6473207A
:08081200656C61707365640000
:00000001FF
